{
  "contractName": "DIDXBadge",
  "abi": [
    {
      "inputs": [
        {
          "internalType": "address",
          "name": "initialOwner",
          "type": "address"
        }
      ],
      "stateMutability": "nonpayable",
      "type": "constructor"
    },
    {
      "inputs": [
        {
          "internalType": "address",
          "name": "sender",
          "type": "address"
        },
        {
          "internalType": "uint256",
          "name": "tokenId",
          "type": "uint256"
        },
        {
          "internalType": "address",
          "name": "owner",
          "type": "address"
        }
      ],
      "name": "ERC721IncorrectOwner",
      "type": "error"
    },
    {
      "inputs": [
        {
          "internalType": "address",
          "name": "operator",
          "type": "address"
        },
        {
          "internalType": "uint256",
          "name": "tokenId",
          "type": "uint256"
        }
      ],
      "name": "ERC721InsufficientApproval",
      "type": "error"
    },
    {
      "inputs": [
        {
          "internalType": "address",
          "name": "approver",
          "type": "address"
        }
      ],
      "name": "ERC721InvalidApprover",
      "type": "error"
    },
    {
      "inputs": [
        {
          "internalType": "address",
          "name": "operator",
          "type": "address"
        }
      ],
      "name": "ERC721InvalidOperator",
      "type": "error"
    },
    {
      "inputs": [
        {
          "internalType": "address",
          "name": "owner",
          "type": "address"
        }
      ],
      "name": "ERC721InvalidOwner",
      "type": "error"
    },
    {
      "inputs": [
        {
          "internalType": "address",
          "name": "receiver",
          "type": "address"
        }
      ],
      "name": "ERC721InvalidReceiver",
      "type": "error"
    },
    {
      "inputs": [
        {
          "internalType": "address",
          "name": "sender",
          "type": "address"
        }
      ],
      "name": "ERC721InvalidSender",
      "type": "error"
    },
    {
      "inputs": [
        {
          "internalType": "uint256",
          "name": "tokenId",
          "type": "uint256"
        }
      ],
      "name": "ERC721NonexistentToken",
      "type": "error"
    },
    {
      "inputs": [
        {
          "internalType": "address",
          "name": "owner",
          "type": "address"
        }
      ],
      "name": "OwnableInvalidOwner",
      "type": "error"
    },
    {
      "inputs": [
        {
          "internalType": "address",
          "name": "account",
          "type": "address"
        }
      ],
      "name": "OwnableUnauthorizedAccount",
      "type": "error"
    },
    {
      "anonymous": false,
      "inputs": [
        {
          "indexed": true,
          "internalType": "address",
          "name": "owner",
          "type": "address"
        },
        {
          "indexed": true,
          "internalType": "address",
          "name": "approved",
          "type": "address"
        },
        {
          "indexed": true,
          "internalType": "uint256",
          "name": "tokenId",
          "type": "uint256"
        }
      ],
      "name": "Approval",
      "type": "event"
    },
    {
      "anonymous": false,
      "inputs": [
        {
          "indexed": true,
          "internalType": "address",
          "name": "owner",
          "type": "address"
        },
        {
          "indexed": true,
          "internalType": "address",
          "name": "operator",
          "type": "address"
        },
        {
          "indexed": false,
          "internalType": "bool",
          "name": "approved",
          "type": "bool"
        }
      ],
      "name": "ApprovalForAll",
      "type": "event"
    },
    {
      "anonymous": false,
      "inputs": [
        {
          "indexed": true,
          "internalType": "address",
          "name": "previousOwner",
          "type": "address"
        },
        {
          "indexed": true,
          "internalType": "address",
          "name": "newOwner",
          "type": "address"
        }
      ],
      "name": "OwnershipTransferred",
      "type": "event"
    },
    {
      "anonymous": false,
      "inputs": [
        {
          "indexed": true,
          "internalType": "address",
          "name": "from",
          "type": "address"
        },
        {
          "indexed": true,
          "internalType": "address",
          "name": "to",
          "type": "address"
        },
        {
          "indexed": true,
          "internalType": "uint256",
          "name": "tokenId",
          "type": "uint256"
        }
      ],
      "name": "Transfer",
      "type": "event"
    },
    {
      "inputs": [
        {
          "internalType": "address",
          "name": "to",
          "type": "address"
        },
        {
          "internalType": "uint256",
          "name": "tokenId",
          "type": "uint256"
        }
      ],
      "name": "approve",
      "outputs": [],
      "stateMutability": "nonpayable",
      "type": "function"
    },
    {
      "inputs": [
        {
          "internalType": "uint256",
          "name": "",
          "type": "uint256"
        }
      ],
      "name": "badges",
      "outputs": [
        {
          "internalType": "uint256",
          "name": "tokenId",
          "type": "uint256"
        },
        {
          "internalType": "uint8",
          "name": "starRanking",
          "type": "uint8"
        },
        {
          "internalType": "string",
          "name": "statusColor",
          "type": "string"
        },
        {
          "internalType": "string",
          "name": "metadataURI",
          "type": "string"
        }
      ],
      "stateMutability": "view",
      "type": "function"
    },
    {
      "inputs": [
        {
          "internalType": "address",
          "name": "owner",
          "type": "address"
        }
      ],
      "name": "balanceOf",
      "outputs": [
        {
          "internalType": "uint256",
          "name": "",
          "type": "uint256"
        }
      ],
      "stateMutability": "view",
      "type": "function"
    },
    {
      "inputs": [
        {
          "internalType": "uint256",
          "name": "tokenId",
          "type": "uint256"
        }
      ],
      "name": "getApproved",
      "outputs": [
        {
          "internalType": "address",
          "name": "",
          "type": "address"
        }
      ],
      "stateMutability": "view",
      "type": "function"
    },
    {
      "inputs": [
        {
          "internalType": "address",
          "name": "owner",
          "type": "address"
        },
        {
          "internalType": "address",
          "name": "operator",
          "type": "address"
        }
      ],
      "name": "isApprovedForAll",
      "outputs": [
        {
          "internalType": "bool",
          "name": "",
          "type": "bool"
        }
      ],
      "stateMutability": "view",
      "type": "function"
    },
    {
      "inputs": [],
      "name": "name",
      "outputs": [
        {
          "internalType": "string",
          "name": "",
          "type": "string"
        }
      ],
      "stateMutability": "view",
      "type": "function"
    },
    {
      "inputs": [],
      "name": "owner",
      "outputs": [
        {
          "internalType": "address",
          "name": "",
          "type": "address"
        }
      ],
      "stateMutability": "view",
      "type": "function"
    },
    {
      "inputs": [
        {
          "internalType": "uint256",
          "name": "tokenId",
          "type": "uint256"
        }
      ],
      "name": "ownerOf",
      "outputs": [
        {
          "internalType": "address",
          "name": "",
          "type": "address"
        }
      ],
      "stateMutability": "view",
      "type": "function"
    },
    {
      "inputs": [],
      "name": "renounceOwnership",
      "outputs": [],
      "stateMutability": "nonpayable",
      "type": "function"
    },
    {
      "inputs": [
        {
          "internalType": "address",
          "name": "from",
          "type": "address"
        },
        {
          "internalType": "address",
          "name": "to",
          "type": "address"
        },
        {
          "internalType": "uint256",
          "name": "tokenId",
          "type": "uint256"
        }
      ],
      "name": "safeTransferFrom",
      "outputs": [],
      "stateMutability": "nonpayable",
      "type": "function"
    },
    {
      "inputs": [
        {
          "internalType": "address",
          "name": "from",
          "type": "address"
        },
        {
          "internalType": "address",
          "name": "to",
          "type": "address"
        },
        {
          "internalType": "uint256",
          "name": "tokenId",
          "type": "uint256"
        },
        {
          "internalType": "bytes",
          "name": "data",
          "type": "bytes"
        }
      ],
      "name": "safeTransferFrom",
      "outputs": [],
      "stateMutability": "nonpayable",
      "type": "function"
    },
    {
      "inputs": [
        {
          "internalType": "address",
          "name": "operator",
          "type": "address"
        },
        {
          "internalType": "bool",
          "name": "approved",
          "type": "bool"
        }
      ],
      "name": "setApprovalForAll",
      "outputs": [],
      "stateMutability": "nonpayable",
      "type": "function"
    },
    {
      "inputs": [
        {
          "internalType": "bytes4",
          "name": "interfaceId",
          "type": "bytes4"
        }
      ],
      "name": "supportsInterface",
      "outputs": [
        {
          "internalType": "bool",
          "name": "",
          "type": "bool"
        }
      ],
      "stateMutability": "view",
      "type": "function"
    },
    {
      "inputs": [],
      "name": "symbol",
      "outputs": [
        {
          "internalType": "string",
          "name": "",
          "type": "string"
        }
      ],
      "stateMutability": "view",
      "type": "function"
    },
    {
      "inputs": [
        {
          "internalType": "address",
          "name": "from",
          "type": "address"
        },
        {
          "internalType": "address",
          "name": "to",
          "type": "address"
        },
        {
          "internalType": "uint256",
          "name": "tokenId",
          "type": "uint256"
        }
      ],
      "name": "transferFrom",
      "outputs": [],
      "stateMutability": "nonpayable",
      "type": "function"
    },
    {
      "inputs": [
        {
          "internalType": "address",
          "name": "newOwner",
          "type": "address"
        }
      ],
      "name": "transferOwnership",
      "outputs": [],
      "stateMutability": "nonpayable",
      "type": "function"
    },
    {
      "inputs": [
        {
          "internalType": "address",
          "name": "to",
          "type": "address"
        },
        {
          "internalType": "uint256",
          "name": "tokenId",
          "type": "uint256"
        },
        {
          "internalType": "string",
          "name": "metadataURI",
          "type": "string"
        }
      ],
      "name": "mintBadge",
      "outputs": [],
      "stateMutability": "nonpayable",
      "type": "function"
    },
    {
      "inputs": [
        {
          "internalType": "uint256",
          "name": "tokenId",
          "type": "uint256"
        },
        {
          "internalType": "uint8",
          "name": "newRanking",
          "type": "uint8"
        }
      ],
      "name": "updateRanking",
      "outputs": [],
      "stateMutability": "nonpayable",
      "type": "function"
    },
    {
      "inputs": [
        {
          "internalType": "uint256",
          "name": "tokenId",
          "type": "uint256"
        },
        {
          "internalType": "string",
          "name": "newColor",
          "type": "string"
        }
      ],
      "name": "updateStatus",
      "outputs": [],
      "stateMutability": "nonpayable",
      "type": "function"
    },
    {
      "inputs": [
        {
          "internalType": "uint256",
          "name": "tokenId",
          "type": "uint256"
        }
      ],
      "name": "tokenURI",
      "outputs": [
        {
          "internalType": "string",
          "name": "",
          "type": "string"
        }
      ],
      "stateMutability": "view",
      "type": "function"
    }
  ],
  "bytecode": "0x608060405234801562000010575f80fd5b5060405162002ad938038062002ad983398181016040528101906200003691906200027c565b806040518060400160405280600981526020017f44494458426164676500000000000000000000000000000000000000000000008152506040518060400160405280600681526020017f4442414447450000000000000000000000000000000000000000000000000000815250815f9081620000b3919062000510565b508060019081620000c5919062000510565b5050505f73ffffffffffffffffffffffffffffffffffffffff168173ffffffffffffffffffffffffffffffffffffffff16036200013b575f6040517f1e4fbdf700000000000000000000000000000000000000000000000000000000815260040162000132919062000605565b60405180910390fd5b6200014c816200015460201b60201c565b505062000620565b5f60065f9054906101000a900473ffffffffffffffffffffffffffffffffffffffff1690508160065f6101000a81548173ffffffffffffffffffffffffffffffffffffffff021916908373ffffffffffffffffffffffffffffffffffffffff1602179055508173ffffffffffffffffffffffffffffffffffffffff168173ffffffffffffffffffffffffffffffffffffffff167f8be0079c531659141344cd1fd0a4f28419497f9722a3daafe3b4186f6b6457e060405160405180910390a35050565b5f80fd5b5f73ffffffffffffffffffffffffffffffffffffffff82169050919050565b5f62000246826200021b565b9050919050565b62000258816200023a565b811462000263575f80fd5b50565b5f8151905062000276816200024d565b92915050565b5f6020828403121562000294576200029362000217565b5b5f620002a38482850162000266565b91505092915050565b5f81519050919050565b7f4e487b71000000000000000000000000000000000000000000000000000000005f52604160045260245ffd5b7f4e487b71000000000000000000000000000000000000000000000000000000005f52602260045260245ffd5b5f60028204905060018216806200032857607f821691505b6020821081036200033e576200033d620002e3565b5b50919050565b5f819050815f5260205f209050919050565b5f6020601f8301049050919050565b5f82821b905092915050565b5f60088302620003a27fffffffffffffffffffffffffffffffffffffffffffffffffffffffffffffffff8262000365565b620003ae868362000365565b95508019841693508086168417925050509392505050565b5f819050919050565b5f819050919050565b5f620003f8620003f2620003ec84620003c6565b620003cf565b620003c6565b9050919050565b5f819050919050565b6200041383620003d8565b6200042b6200042282620003ff565b84845462000371565b825550505050565b5f90565b6200044162000433565b6200044e81848462000408565b505050565b5b818110156200047557620004695f8262000437565b60018101905062000454565b5050565b601f821115620004c4576200048e8162000344565b620004998462000356565b81016020851015620004a9578190505b620004c1620004b88562000356565b83018262000453565b50505b505050565b5f82821c905092915050565b5f620004e65f1984600802620004c9565b1980831691505092915050565b5f620005008383620004d5565b9150826002028217905092915050565b6200051b82620002ac565b67ffffffffffffffff811115620005375762000536620002b6565b5b62000543825462000310565b6200055082828562000479565b5f60209050601f83116001811462000586575f841562000571578287015190505b6200057d8582620004f3565b865550620005ec565b601f198416620005968662000344565b5f5b82811015620005bf5784890151825560018201915060208501945060208101905062000598565b86831015620005df5784890151620005db601f891682620004d5565b8355505b6001600288020188555050505b505050505050565b620005ff816200023a565b82525050565b5f6020820190506200061a5f830184620005f4565b92915050565b6124ab806200062e5f395ff3fe608060405234801561000f575f80fd5b506004361061012a575f3560e01c806374afd802116100ab578063b88d4fde1161006f578063b88d4fde1461032d578063c87b56dd14610349578063d1b34dd814610379578063e985e9c514610395578063f2fde38b146103c55761012a565b806374afd802146102865780638da5cb5b146102a257806395d89b41146102c057806398e36d8b146102de578063a22cb465146103115761012a565b806342842e0e116100f257806342842e0e146101e45780636352211e14610200578063680843741461023057806370a082311461024c578063715018a61461027c5761012a565b806301ffc9a71461012e57806306fdde031461015e578063081812fc1461017c578063095ea7b3146101ac57806323b872dd146101c8575b5f80fd5b61014860048036038101906101439190611922565b6103e1565b6040516101559190611967565b60405180910390f35b6101666104c2565b6040516101739190611a0a565b60405180910390f35b61019660048036038101906101919190611a5d565b610551565b6040516101a39190611ac7565b60405180910390f35b6101c660048036038101906101c19190611b0a565b61056c565b005b6101e260048036038101906101dd9190611b48565b610582565b005b6101fe60048036038101906101f99190611b48565b610681565b005b61021a60048036038101906102159190611a5d565b6106a0565b6040516102279190611ac7565b60405180910390f35b61024a60048036038101906102459190611bce565b6106b1565b005b61026660048036038101906102619190611c0c565b6106e9565b6040516102739190611c46565b60405180910390f35b61028461079f565b005b6102a0600480360381019061029b9190611d8b565b6107b2565b005b6102aa61088a565b6040516102b79190611ac7565b60405180910390f35b6102c86108b2565b6040516102d59190611a0a565b60405180910390f35b6102f860048036038101906102f39190611a5d565b610942565b6040516103089493929190611e06565b60405180910390f35b61032b60048036038101906103269190611e81565b610a86565b005b61034760048036038101906103429190611f5d565b610a9c565b005b610363600480360381019061035e9190611a5d565b610ab9565b6040516103709190611a0a565b60405180910390f35b610393600480360381019061038e9190611fdd565b610b5d565b005b6103af60048036038101906103aa9190612037565b610b8b565b6040516103bc9190611967565b60405180910390f35b6103df60048036038101906103da9190611c0c565b610c19565b005b5f7f80ac58cd000000000000000000000000000000000000000000000000000000007bffffffffffffffffffffffffffffffffffffffffffffffffffffffff1916827bffffffffffffffffffffffffffffffffffffffffffffffffffffffff191614806104ab57507f5b5e139f000000000000000000000000000000000000000000000000000000007bffffffffffffffffffffffffffffffffffffffffffffffffffffffff1916827bffffffffffffffffffffffffffffffffffffffffffffffffffffffff1916145b806104bb57506104ba82610c9d565b5b9050919050565b60605f80546104d0906120a2565b80601f01602080910402602001604051908101604052809291908181526020018280546104fc906120a2565b80156105475780601f1061051e57610100808354040283529160200191610547565b820191905f5260205f20905b81548152906001019060200180831161052a57829003601f168201915b5050505050905090565b5f61055b82610d06565b5061056582610d8c565b9050919050565b61057e8282610579610dc5565b610dcc565b5050565b5f73ffffffffffffffffffffffffffffffffffffffff168273ffffffffffffffffffffffffffffffffffffffff16036105f2575f6040517f64a0ae920000000000000000000000000000000000000000000000000000000081526004016105e99190611ac7565b60405180910390fd5b5f6106058383610600610dc5565b610dde565b90508373ffffffffffffffffffffffffffffffffffffffff168173ffffffffffffffffffffffffffffffffffffffff161461067b578382826040517f64283d7b000000000000000000000000000000000000000000000000000000008152600401610672939291906120d2565b60405180910390fd5b50505050565b61069b83838360405180602001604052805f815250610a9c565b505050565b5f6106aa82610d06565b9050919050565b6106b9610fe9565b8060075f8481526020019081526020015f206001015f6101000a81548160ff021916908360ff1602179055505050565b5f8073ffffffffffffffffffffffffffffffffffffffff168273ffffffffffffffffffffffffffffffffffffffff160361075a575f6040517f89c62b640000000000000000000000000000000000000000000000000000000081526004016107519190611ac7565b60405180910390fd5b60035f8373ffffffffffffffffffffffffffffffffffffffff1673ffffffffffffffffffffffffffffffffffffffff1681526020019081526020015f20549050919050565b6107a7610fe9565b6107b05f611070565b565b6107ba610fe9565b6107c48383611133565b60405180608001604052808381526020015f60ff1681526020016040518060400160405280600581526020017f677265656e00000000000000000000000000000000000000000000000000000081525081526020018281525060075f8481526020019081526020015f205f820151815f01556020820151816001015f6101000a81548160ff021916908360ff160217905550604082015181600201908161086b91906122a4565b50606082015181600301908161088191906122a4565b50905050505050565b5f60065f9054906101000a900473ffffffffffffffffffffffffffffffffffffffff16905090565b6060600180546108c1906120a2565b80601f01602080910402602001604051908101604052809291908181526020018280546108ed906120a2565b80156109385780601f1061090f57610100808354040283529160200191610938565b820191905f5260205f20905b81548152906001019060200180831161091b57829003601f168201915b5050505050905090565b6007602052805f5260405f205f91509050805f015490806001015f9054906101000a900460ff1690806002018054610979906120a2565b80601f01602080910402602001604051908101604052809291908181526020018280546109a5906120a2565b80156109f05780601f106109c7576101008083540402835291602001916109f0565b820191905f5260205f20905b8154815290600101906020018083116109d357829003601f168201915b505050505090806003018054610a05906120a2565b80601f0160208091040260200160405190810160405280929190818152602001828054610a31906120a2565b8015610a7c5780601f10610a5357610100808354040283529160200191610a7c565b820191905f5260205f20905b815481529060010190602001808311610a5f57829003601f168201915b5050505050905084565b610a98610a91610dc5565b8383611226565b5050565b610aa7848484610582565b610ab38484848461138f565b50505050565b606060075f8381526020019081526020015f206003018054610ada906120a2565b80601f0160208091040260200160405190810160405280929190818152602001828054610b06906120a2565b8015610b515780601f10610b2857610100808354040283529160200191610b51565b820191905f5260205f20905b815481529060010190602001808311610b3457829003601f168201915b50505050509050919050565b610b65610fe9565b8060075f8481526020019081526020015f206002019081610b8691906122a4565b505050565b5f60055f8473ffffffffffffffffffffffffffffffffffffffff1673ffffffffffffffffffffffffffffffffffffffff1681526020019081526020015f205f8373ffffffffffffffffffffffffffffffffffffffff1673ffffffffffffffffffffffffffffffffffffffff1681526020019081526020015f205f9054906101000a900460ff16905092915050565b610c21610fe9565b5f73ffffffffffffffffffffffffffffffffffffffff168173ffffffffffffffffffffffffffffffffffffffff1603610c91575f6040517f1e4fbdf7000000000000000000000000000000000000000000000000000000008152600401610c889190611ac7565b60405180910390fd5b610c9a81611070565b50565b5f7f01ffc9a7000000000000000000000000000000000000000000000000000000007bffffffffffffffffffffffffffffffffffffffffffffffffffffffff1916827bffffffffffffffffffffffffffffffffffffffffffffffffffffffff1916149050919050565b5f80610d1183611541565b90505f73ffffffffffffffffffffffffffffffffffffffff168173ffffffffffffffffffffffffffffffffffffffff1603610d8357826040517f7e273289000000000000000000000000000000000000000000000000000000008152600401610d7a9190611c46565b60405180910390fd5b80915050919050565b5f60045f8381526020019081526020015f205f9054906101000a900473ffffffffffffffffffffffffffffffffffffffff169050919050565b5f33905090565b610dd9838383600161157a565b505050565b5f80610de984611541565b90505f73ffffffffffffffffffffffffffffffffffffffff168373ffffffffffffffffffffffffffffffffffffffff1614610e2a57610e29818486611739565b5b5f73ffffffffffffffffffffffffffffffffffffffff168173ffffffffffffffffffffffffffffffffffffffff1614610eb557610e695f855f8061157a565b600160035f8373ffffffffffffffffffffffffffffffffffffffff1673ffffffffffffffffffffffffffffffffffffffff1681526020019081526020015f205f82825403925050819055505b5f73ffffffffffffffffffffffffffffffffffffffff168573ffffffffffffffffffffffffffffffffffffffff1614610f3457600160035f8773ffffffffffffffffffffffffffffffffffffffff1673ffffffffffffffffffffffffffffffffffffffff1681526020019081526020015f205f82825401925050819055505b8460025f8681526020019081526020015f205f6101000a81548173ffffffffffffffffffffffffffffffffffffffff021916908373ffffffffffffffffffffffffffffffffffffffff160217905550838573ffffffffffffffffffffffffffffffffffffffff168273ffffffffffffffffffffffffffffffffffffffff167fddf252ad1be2c89b69c2b068fc378daa952ba7f163c4a11628f55a4df523b3ef60405160405180910390a4809150509392505050565b610ff1610dc5565b73ffffffffffffffffffffffffffffffffffffffff1661100f61088a565b73ffffffffffffffffffffffffffffffffffffffff161461106e57611032610dc5565b6040517f118cdaa70000000000000000000000000000000000000000000000000000000081526004016110659190611ac7565b60405180910390fd5b565b5f60065f9054906101000a900473ffffffffffffffffffffffffffffffffffffffff1690508160065f6101000a81548173ffffffffffffffffffffffffffffffffffffffff021916908373ffffffffffffffffffffffffffffffffffffffff1602179055508173ffffffffffffffffffffffffffffffffffffffff168173ffffffffffffffffffffffffffffffffffffffff167f8be0079c531659141344cd1fd0a4f28419497f9722a3daafe3b4186f6b6457e060405160405180910390a35050565b5f73ffffffffffffffffffffffffffffffffffffffff168273ffffffffffffffffffffffffffffffffffffffff16036111a3575f6040517f64a0ae9200000000000000000000000000000000000000000000000000000000815260040161119a9190611ac7565b60405180910390fd5b5f6111af83835f610dde565b90505f73ffffffffffffffffffffffffffffffffffffffff168173ffffffffffffffffffffffffffffffffffffffff1614611221575f6040517f73c6ac6e0000000000000000000000000000000000000000000000000000000081526004016112189190611ac7565b60405180910390fd5b505050565b5f73ffffffffffffffffffffffffffffffffffffffff168273ffffffffffffffffffffffffffffffffffffffff160361129657816040517f5b08ba1800000000000000000000000000000000000000000000000000000000815260040161128d9190611ac7565b60405180910390fd5b8060055f8573ffffffffffffffffffffffffffffffffffffffff1673ffffffffffffffffffffffffffffffffffffffff1681526020019081526020015f205f8473ffffffffffffffffffffffffffffffffffffffff1673ffffffffffffffffffffffffffffffffffffffff1681526020019081526020015f205f6101000a81548160ff0219169083151502179055508173ffffffffffffffffffffffffffffffffffffffff168373ffffffffffffffffffffffffffffffffffffffff167f17307eab39ab6107e8899845ad3d59bd9653f200f220920489ca2b5937696c31836040516113829190611967565b60405180910390a3505050565b5f8373ffffffffffffffffffffffffffffffffffffffff163b111561153b578273ffffffffffffffffffffffffffffffffffffffff1663150b7a026113d2610dc5565b8685856040518563ffffffff1660e01b81526004016113f494939291906123c5565b6020604051808303815f875af192505050801561142f57506040513d601f19601f8201168201806040525081019061142c9190612423565b60015b6114b0573d805f811461145d576040519150601f19603f3d011682016040523d82523d5f602084013e611462565b606091505b505f8151036114a857836040517f64a0ae9200000000000000000000000000000000000000000000000000000000815260040161149f9190611ac7565b60405180910390fd5b805181602001fd5b63150b7a0260e01b7bffffffffffffffffffffffffffffffffffffffffffffffffffffffff1916817bffffffffffffffffffffffffffffffffffffffffffffffffffffffff19161461153957836040517f64a0ae920000000000000000000000000000000000000000000000000000000081526004016115309190611ac7565b60405180910390fd5b505b50505050565b5f60025f8381526020019081526020015f205f9054906101000a900473ffffffffffffffffffffffffffffffffffffffff169050919050565b80806115b257505f73ffffffffffffffffffffffffffffffffffffffff168273ffffffffffffffffffffffffffffffffffffffff1614155b156116e4575f6115c184610d06565b90505f73ffffffffffffffffffffffffffffffffffffffff168373ffffffffffffffffffffffffffffffffffffffff161415801561162b57508273ffffffffffffffffffffffffffffffffffffffff168173ffffffffffffffffffffffffffffffffffffffff1614155b801561163e575061163c8184610b8b565b155b1561168057826040517fa9fbf51f0000000000000000000000000000000000000000000000000000000081526004016116779190611ac7565b60405180910390fd5b81156116e257838573ffffffffffffffffffffffffffffffffffffffff168273ffffffffffffffffffffffffffffffffffffffff167f8c5be1e5ebec7d5bd14f71427d1e84f3dd0314c0f7b2291e5b200ac8c7c3b92560405160405180910390a45b505b8360045f8581526020019081526020015f205f6101000a81548173ffffffffffffffffffffffffffffffffffffffff021916908373ffffffffffffffffffffffffffffffffffffffff16021790555050505050565b6117448383836117fc565b6117f7575f73ffffffffffffffffffffffffffffffffffffffff168373ffffffffffffffffffffffffffffffffffffffff16036117b857806040517f7e2732890000000000000000000000000000000000000000000000000000000081526004016117af9190611c46565b60405180910390fd5b81816040517f177e802f0000000000000000000000000000000000000000000000000000000081526004016117ee92919061244e565b60405180910390fd5b505050565b5f8073ffffffffffffffffffffffffffffffffffffffff168373ffffffffffffffffffffffffffffffffffffffff16141580156118b357508273ffffffffffffffffffffffffffffffffffffffff168473ffffffffffffffffffffffffffffffffffffffff16148061187457506118738484610b8b565b5b806118b257508273ffffffffffffffffffffffffffffffffffffffff1661189a83610d8c565b73ffffffffffffffffffffffffffffffffffffffff16145b5b90509392505050565b5f604051905090565b5f80fd5b5f80fd5b5f7fffffffff0000000000000000000000000000000000000000000000000000000082169050919050565b611901816118cd565b811461190b575f80fd5b50565b5f8135905061191c816118f8565b92915050565b5f60208284031215611937576119366118c5565b5b5f6119448482850161190e565b91505092915050565b5f8115159050919050565b6119618161194d565b82525050565b5f60208201905061197a5f830184611958565b92915050565b5f81519050919050565b5f82825260208201905092915050565b5f5b838110156119b757808201518184015260208101905061199c565b5f8484015250505050565b5f601f19601f8301169050919050565b5f6119dc82611980565b6119e6818561198a565b93506119f681856020860161199a565b6119ff816119c2565b840191505092915050565b5f6020820190508181035f830152611a2281846119d2565b905092915050565b5f819050919050565b611a3c81611a2a565b8114611a46575f80fd5b50565b5f81359050611a5781611a33565b92915050565b5f60208284031215611a7257611a716118c5565b5b5f611a7f84828501611a49565b91505092915050565b5f73ffffffffffffffffffffffffffffffffffffffff82169050919050565b5f611ab182611a88565b9050919050565b611ac181611aa7565b82525050565b5f602082019050611ada5f830184611ab8565b92915050565b611ae981611aa7565b8114611af3575f80fd5b50565b5f81359050611b0481611ae0565b92915050565b5f8060408385031215611b2057611b1f6118c5565b5b5f611b2d85828601611af6565b9250506020611b3e85828601611a49565b9150509250929050565b5f805f60608486031215611b5f57611b5e6118c5565b5b5f611b6c86828701611af6565b9350506020611b7d86828701611af6565b9250506040611b8e86828701611a49565b9150509250925092565b5f60ff82169050919050565b611bad81611b98565b8114611bb7575f80fd5b50565b5f81359050611bc881611ba4565b92915050565b5f8060408385031215611be457611be36118c5565b5b5f611bf185828601611a49565b9250506020611c0285828601611bba565b9150509250929050565b5f60208284031215611c2157611c206118c5565b5b5f611c2e84828501611af6565b91505092915050565b611c4081611a2a565b82525050565b5f602082019050611c595f830184611c37565b92915050565b5f80fd5b5f80fd5b7f4e487b71000000000000000000000000000000000000000000000000000000005f52604160045260245ffd5b611c9d826119c2565b810181811067ffffffffffffffff82111715611cbc57611cbb611c67565b5b80604052505050565b5f611cce6118bc565b9050611cda8282611c94565b919050565b5f67ffffffffffffffff821115611cf957611cf8611c67565b5b611d02826119c2565b9050602081019050919050565b828183375f83830152505050565b5f611d2f611d2a84611cdf565b611cc5565b905082815260208101848484011115611d4b57611d4a611c63565b5b611d56848285611d0f565b509392505050565b5f82601f830112611d7257611d71611c5f565b5b8135611d82848260208601611d1d565b91505092915050565b5f805f60608486031215611da257611da16118c5565b5b5f611daf86828701611af6565b9350506020611dc086828701611a49565b925050604084013567ffffffffffffffff811115611de157611de06118c9565b5b611ded86828701611d5e565b9150509250925092565b611e0081611b98565b82525050565b5f608082019050611e195f830187611c37565b611e266020830186611df7565b8181036040830152611e3881856119d2565b90508181036060830152611e4c81846119d2565b905095945050505050565b611e608161194d565b8114611e6a575f80fd5b50565b5f81359050611e7b81611e57565b92915050565b5f8060408385031215611e9757611e966118c5565b5b5f611ea485828601611af6565b9250506020611eb585828601611e6d565b9150509250929050565b5f67ffffffffffffffff821115611ed957611ed8611c67565b5b611ee2826119c2565b9050602081019050919050565b5f611f01611efc84611ebf565b611cc5565b905082815260208101848484011115611f1d57611f1c611c63565b5b611f28848285611d0f565b509392505050565b5f82601f830112611f4457611f43611c5f565b5b8135611f54848260208601611eef565b91505092915050565b5f805f8060808587031215611f7557611f746118c5565b5b5f611f8287828801611af6565b9450506020611f9387828801611af6565b9350506040611fa487828801611a49565b925050606085013567ffffffffffffffff811115611fc557611fc46118c9565b5b611fd187828801611f30565b91505092959194509250565b5f8060408385031215611ff357611ff26118c5565b5b5f61200085828601611a49565b925050602083013567ffffffffffffffff811115612021576120206118c9565b5b61202d85828601611d5e565b9150509250929050565b5f806040838503121561204d5761204c6118c5565b5b5f61205a85828601611af6565b925050602061206b85828601611af6565b9150509250929050565b7f4e487b71000000000000000000000000000000000000000000000000000000005f52602260045260245ffd5b5f60028204905060018216806120b957607f821691505b6020821081036120cc576120cb612075565b5b50919050565b5f6060820190506120e55f830186611ab8565b6120f26020830185611c37565b6120ff6040830184611ab8565b949350505050565b5f819050815f5260205f209050919050565b5f6020601f8301049050919050565b5f82821b905092915050565b5f600883026121637fffffffffffffffffffffffffffffffffffffffffffffffffffffffffffffffff82612128565b61216d8683612128565b95508019841693508086168417925050509392505050565b5f819050919050565b5f6121a86121a361219e84611a2a565b612185565b611a2a565b9050919050565b5f819050919050565b6121c18361218e565b6121d56121cd826121af565b848454612134565b825550505050565b5f90565b6121e96121dd565b6121f48184846121b8565b505050565b5b818110156122175761220c5f826121e1565b6001810190506121fa565b5050565b601f82111561225c5761222d81612107565b61223684612119565b81016020851015612245578190505b61225961225185612119565b8301826121f9565b50505b505050565b5f82821c905092915050565b5f61227c5f1984600802612261565b1980831691505092915050565b5f612294838361226d565b9150826002028217905092915050565b6122ad82611980565b67ffffffffffffffff8111156122c6576122c5611c67565b5b6122d082546120a2565b6122db82828561221b565b5f60209050601f83116001811461230c575f84156122fa578287015190505b6123048582612289565b86555061236b565b601f19841661231a86612107565b5f5b828110156123415784890151825560018201915060208501945060208101905061231c565b8683101561235e578489015161235a601f89168261226d565b8355505b6001600288020188555050505b505050505050565b5f81519050919050565b5f82825260208201905092915050565b5f61239782612373565b6123a1818561237d565b93506123b181856020860161199a565b6123ba816119c2565b840191505092915050565b5f6080820190506123d85f830187611ab8565b6123e56020830186611ab8565b6123f26040830185611c37565b8181036060830152612404818461238d565b905095945050505050565b5f8151905061241d816118f8565b92915050565b5f60208284031215612438576124376118c5565b5b5f6124458482850161240f565b91505092915050565b5f6040820190506124615f830185611ab8565b61246e6020830184611c37565b939250505056fea264697066735822122009b63d0a1d83b20034e3f4b641b1149b0ed085a35900909764e8801d98e6c47564736f6c63430008150033",
  "immutableReferences": {},
  "source": "// SPDX-License-Identifier: MIT\r\npragma solidity ^0.8.0;\r\n\r\nimport \"@openzeppelin/contracts/token/ERC721/ERC721.sol\";\r\nimport \"@openzeppelin/contracts/access/Ownable.sol\";\r\n\r\ncontract DIDXBadge is ERC721, Ownable {\r\n    struct Badge {\r\n        uint256 tokenId;\r\n        uint8 starRanking;\r\n        string statusColor;\r\n        string metadataURI;\r\n    }\r\n\r\n    mapping(uint256 => Badge) public badges;\r\n\r\n    constructor(address initialOwner) ERC721(\"DIDXBadge\", \"DBADGE\") Ownable(initialOwner) {}\r\n\r\n    function mintBadge(address to, uint256 tokenId, string memory metadataURI) public onlyOwner {\r\n        _mint(to, tokenId);\r\n        badges[tokenId] = Badge(tokenId, 0, \"green\", metadataURI);\r\n    }\r\n\r\n    function updateRanking(uint256 tokenId, uint8 newRanking) public onlyOwner {\r\n        badges[tokenId].starRanking = newRanking;\r\n    }\r\n\r\n    function updateStatus(uint256 tokenId, string memory newColor) public onlyOwner {\r\n        badges[tokenId].statusColor = newColor;\r\n    }\r\n\r\n    function tokenURI(uint256 tokenId) public view override returns (string memory) {\r\n        return badges[tokenId].metadataURI;\r\n    }\r\n}\r\n",
  "sourcePath": "C:\\Users\\CEO-FOUNER-HTS\\Desktop\\ERC-721ERC-1155 Smart Contract Creation\\DIDX_Certification_Badge\\contracts\\DIDXBadge.sol",
  "compiler": {
    "name": "solc",
    "version": "0.8.21+commit.d9974bed.Emscripten.clang"
  },
  "schemaVersion": "3.4.16",
  "updatedAt": "2024-05-29T05:51:59.377Z",
  "devdoc": {
    "errors": {
      "ERC721IncorrectOwner(address,uint256,address)": [
        {
          "details": "Indicates an error related to the ownership over a particular token. Used in transfers.",
          "params": {
            "owner": "Address of the current owner of a token.",
            "sender": "Address whose tokens are being transferred.",
            "tokenId": "Identifier number of a token."
          }
        }
      ],
      "ERC721InsufficientApproval(address,uint256)": [
        {
          "details": "Indicates a failure with the `operator`s approval. Used in transfers.",
          "params": {
            "operator": "Address that may be allowed to operate on tokens without being their owner.",
            "tokenId": "Identifier number of a token."
          }
        }
      ],
      "ERC721InvalidApprover(address)": [
        {
          "details": "Indicates a failure with the `approver` of a token to be approved. Used in approvals.",
          "params": {
            "approver": "Address initiating an approval operation."
          }
        }
      ],
      "ERC721InvalidOperator(address)": [
        {
          "details": "Indicates a failure with the `operator` to be approved. Used in approvals.",
          "params": {
            "operator": "Address that may be allowed to operate on tokens without being their owner."
          }
        }
      ],
      "ERC721InvalidOwner(address)": [
        {
          "details": "Indicates that an address can't be an owner. For example, `address(0)` is a forbidden owner in EIP-20. Used in balance queries.",
          "params": {
            "owner": "Address of the current owner of a token."
          }
        }
      ],
      "ERC721InvalidReceiver(address)": [
        {
          "details": "Indicates a failure with the token `receiver`. Used in transfers.",
          "params": {
            "receiver": "Address to which tokens are being transferred."
          }
        }
      ],
      "ERC721InvalidSender(address)": [
        {
          "details": "Indicates a failure with the token `sender`. Used in transfers.",
          "params": {
            "sender": "Address whose tokens are being transferred."
          }
        }
      ],
      "ERC721NonexistentToken(uint256)": [
        {
          "details": "Indicates a `tokenId` whose `owner` is the zero address.",
          "params": {
            "tokenId": "Identifier number of a token."
          }
        }
      ],
      "OwnableInvalidOwner(address)": [
        {
          "details": "The owner is not a valid owner account. (eg. `address(0)`)"
        }
      ],
      "OwnableUnauthorizedAccount(address)": [
        {
          "details": "The caller account is not authorized to perform an operation."
        }
      ]
    },
    "events": {
      "Approval(address,address,uint256)": {
        "details": "Emitted when `owner` enables `approved` to manage the `tokenId` token."
      },
      "ApprovalForAll(address,address,bool)": {
        "details": "Emitted when `owner` enables or disables (`approved`) `operator` to manage all of its assets."
      },
      "Transfer(address,address,uint256)": {
        "details": "Emitted when `tokenId` token is transferred from `from` to `to`."
      }
    },
    "kind": "dev",
    "methods": {
      "approve(address,uint256)": {
        "details": "See {IERC721-approve}."
      },
      "balanceOf(address)": {
        "details": "See {IERC721-balanceOf}."
      },
      "getApproved(uint256)": {
        "details": "See {IERC721-getApproved}."
      },
      "isApprovedForAll(address,address)": {
        "details": "See {IERC721-isApprovedForAll}."
      },
      "name()": {
        "details": "See {IERC721Metadata-name}."
      },
      "owner()": {
        "details": "Returns the address of the current owner."
      },
      "ownerOf(uint256)": {
        "details": "See {IERC721-ownerOf}."
      },
      "renounceOwnership()": {
        "details": "Leaves the contract without owner. It will not be possible to call `onlyOwner` functions. Can only be called by the current owner. NOTE: Renouncing ownership will leave the contract without an owner, thereby disabling any functionality that is only available to the owner."
      },
      "safeTransferFrom(address,address,uint256)": {
        "details": "See {IERC721-safeTransferFrom}."
      },
      "safeTransferFrom(address,address,uint256,bytes)": {
        "details": "See {IERC721-safeTransferFrom}."
      },
      "setApprovalForAll(address,bool)": {
        "details": "See {IERC721-setApprovalForAll}."
      },
      "supportsInterface(bytes4)": {
        "details": "See {IERC165-supportsInterface}."
      },
      "symbol()": {
        "details": "See {IERC721Metadata-symbol}."
      },
      "tokenURI(uint256)": {
        "details": "See {IERC721Metadata-tokenURI}."
      },
      "transferFrom(address,address,uint256)": {
        "details": "See {IERC721-transferFrom}."
      },
      "transferOwnership(address)": {
        "details": "Transfers ownership of the contract to a new account (`newOwner`). Can only be called by the current owner."
      }
    },
    "version": 1
  },
  "userdoc": {
    "kind": "user",
    "methods": {},
    "version": 1
  }
}